:100000000C942A000C9447000C9447000C94470071
:100010000C9447000C9447000C9447000C94470044
:100020000C9447000C9447000C9447000C94470034
:100030000C9447000C9447000C9447000C94470024
:100040000C9447000C9447000C9447000C94470014
:100050000C94470011241FBECFE5D8E0DEBFCDBF12
:1000600010E0A0E6B0E0ECE2FBE002C005900D92EB
:10007000A037B107D9F720E0A0E7B0E001C01D929A
:10008000A13BB207E1F70E9442050C9494050C9441
:1000900000007F928F929F92AF92BF92CF92DF9299
:1000A000EF92FF920F931F93CF93DF93CDB7DEB7FD
:1000B000A8970FB6F894DEBF0FBECDBF8091700039
:1000C00090917100009729F00197909371008093AF
:1000D000700080919A0090919B00009729F0019701
:1000E00090939B0080939A008091B0008B3209F02E
:1000F000ECC020919A0030919B00E0917000F0914B
:1001000071006E0147E2C40ED11CCF01880F991F08
:10011000DC01AE58BF4F7D01A90143565F4F5A0124
:1001200002E110E050E0712C0F2EFAE08F2E912C9E
:10013000F02D41E035C0513041F4D7018D919C91B3
:10014000119701968D939C93572DD5018E915D014A
:1001500090E0C097D7016D917C91860F971F8A30F0
:1001600091054CF0B4010E946C05D6018D939C93CF
:10017000C801542F04C0D6018D939C93C8013197B8
:10018000215031093097A1F001501109B2E0CB1A8A
:10019000D10862E0E61AF1082115310509F466C1BB
:1001A000C801019633230CF455C1FF2324F646C140
:1001B00030939B0020939A00F0937100E0937000BD
:1001C000513009F046C020919A0030919B001216E0
:1001D0001306B4F4FC01EE0FFF1FEC0FFD1FD90155
:1001E000A456BF4F4C9150E04F5251095283418366
:1001F00001972150310930939B0020939A0029C028
:10020000209170003091710012161306C4F4FC01A5
:10021000EE0FFF1FEC0FFD1FD901AA0FBB1FAE5839
:10022000BF4F4D915C914F5F5F4F52834183019768
:100230002150310930937100209370000AC0FC01F5
:10024000EE0FFF1FEC0FFD1F21E030E03283218312
:10025000019720919A0030919B003323BCF0D90183
:10026000A356BF4FFC01EE0FFF1FEC0FFD1F33968F
:100270004E9150E0405351095293429301972150BF
:100280003109B2F730939B0020939A0020917000BF
:100290003091710033230CF48DC0D901AA0FBB1F1C
:1002A000AC58BF4FFC01EE0FFF1FEC0FFD1F339644
:1002B0005E914E9152934293019721503109C2F7BA
:1002C000309371002093700075C08D3209F0F3C037
:1002D000A0907000B090710060919A0070919B00A6
:1002E0006A157B050CF4EDC077230CF478C0BB20B5
:1002F0000CF4C7C0FE01319695018B0142E150E03C
:10030000C80184569F4FDC01FC908F2D90E0C09770
:10031000220F331F2E583F4FD9012D913C91821748
:100320009307A4F404561F4F6801B1E0CB1AD1081B
:100330008FEC8F0DD6018C93D8018C9190E086972D
:10034000821B930B97A386A3CA0105C0821B930B44
:1003500097A386A3CA019501215031098B01015051
:1003600011094AF410939B0000939A003093710096
:10037000209370001FC0415051093297B8015901B4
:1003800033230CF0BDCF10939B0000939A00309361
:1003900071002093700077C02E9130E02053310916
:1003A00032932293019741505109B2F750939B0029
:1003B00040939A002091B0002A3299F402C083E160
:1003C00090E0409170005091710020919A0030911E
:1003D0009B0002C03323F4F75523E4F702C083E106
:1003E00090E010929B0010929A00AC01019684312B
:1003F0009105E4F4880F991FE1E0F0E0EC0FFD1F98
:10040000E80FF91FACE9B0E09E01275D3F4F808106
:100410003296805D8D932E173F07C9F783E190E0F8
:10042000841B950B90939B0080939A00E0919A0017
:10043000F0919B00E456FF4F108248C030939B0020
:1004400020939A00F0937100E0937000513009F00E
:1004500006CFB9CE30939B0020939A00F0937100A1
:10046000E0937000513009F4AECE10CF30939B0072
:1004700020939A00F0937100E0937000513089F45A
:10048000BFCE83E190E040919A0050919B00DA0149
:10049000A356BF4FFC01EE0FFF1FEC0FFD1F33965D
:1004A0007BCF20919A0030919B00D9CE10929B0077
:1004B00010929A00BBCF8091B0008A3209F47FCFAE
:1004C000F5CF10929B0010929A00B0CFA8960FB66D
:1004D000F894DEBF0FBECDBFDF91CF911F910F917A
:1004E000FF90EF90DF90CF90BF90AF909F908F9054
:1004F0007F900895CF93C82F8D3329F40E9449002F
:100500008CE990E03BC08D7F8D3221F086ED8C0F21
:10051000823050F48091B00081110E944900C09354
:10052000B00080E090E02AC08091B000811110C03E
:1005300080919A0090919B00FC01E456FF4FC0838C
:10054000019690939B0080939A0080E090E016C003
:100550002091700030917100F901EE0FFF1FEE58ED
:10056000FF4F8C2F90E0C097918380832F5F3F4F88
:10057000309371002093700080E090E0CF91089557
:10058000823499F018F4813431F008958334B9F04D
:100590008434F9F00895613021F48AB3806F8ABB06
:1005A00008958AB38F708ABB0895613021F487B3B0
:1005B000806F87BB089587B38F7087BB08956130C4
:1005C00021F484B3806F84BB089584B38F7084BB9F
:1005D0000895613021F481B3806F81BB089581B3A8
:1005E0008F7081BB0895823499F018F4813431F012
:1005F00008958334B9F08434F9F00895613021F41A
:100600008AB38F608ABB08958AB3807F8ABB0895BE
:10061000613021F487B38F6087BB089587B3807FF3
:1006200087BB0895613021F484B38F6084BB089543
:1006300084B3807F84BB0895613021F481B38F60DF
:1006400081BB089581B3807F81BB0895823471F0AE
:1006500018F4813431F00895833469F0843481F0E2
:1006600008958AB3607F682B6ABB089587B3607F63
:10067000682B67BB089584B3607F682B64BB0895C3
:1006800081B3607F682B61BB0895823471F018F4E8
:10069000813431F00895833469F0843481F0089511
:1006A0008AB36F70682B6ABB089587B36F70682B2D
:1006B00067BB089584B36F70682B64BB089581B3E2
:1006C0006F70682B61BB0895823419F118F481347E
:1006D00039F008958334B1F1843409F44CC008959D
:1006E000613059F42BB381E090E002C0880F991F6C
:1006F0004A95E2F7822B8BBB08952BB381E090E003
:1007000002C0880F991F4A95E2F7809582238BBB20
:100710000895613059F428B381E090E002C0880F59
:10072000991F4A95E2F7822B88BB089528B381E090
:1007300090E002C0880F991F4A95E2F780958223C6
:1007400088BB0895613059F425B381E090E002C080
:10075000880F991F4A95E2F7822B85BB089525B330
:1007600081E090E002C0880F991F4A95E2F78095DA
:10077000822385BB0895613059F422B381E090E073
:1007800002C0880F991F4A95E2F7822B82BB089519
:1007900022B381E090E002C0880F991F4A95E2F7EA
:1007A0008095822382BB0895823489F018F48134C5
:1007B00031F00895833499F08434C9F008958BB3EF
:1007C0008F708BBB8BB3607F682B6BBB089588B336
:1007D0008F7088BB88B3607F682B68BB089585B332
:1007E0008F7085BB85B3607F682B65BB089582B32E
:1007F0008F7082BB82B3607F682B62BB08958234A6
:10080000A1F018F4813431F008958334C9F08434B0
:1008100011F108958BB38F708BBB8BB390E1699FFF
:10082000B0011124682B6BBB089588B38F7088BB0F
:1008300088B390E1699FB0011124682B68BB0895CB
:1008400085B38F7085BB85B390E1699FB00111249A
:10085000682B65BB089582B38F7082BB82B390E131
:10086000699FB0011124682B62BB0895823461F046
:1008700018F4813431F00895833449F0843451F010
:1008800008958FEF8BBB08958FEF88BB08958FEF8E
:1008900085BB08958FEF82BB089560E083E40E94DA
:1008A000C00261E083E40E94F30283E40E94360404
:1008B0000895EF92FF920F931F93CF93DF93CDB7DD
:1008C000DEB760970FB6F894DEBF0FBECDBF80E1F4
:1008D000E0E6F0E0DE01119601900D928A95E1F7D5
:1008E000E12CF12C01E010E083E40E94360495B382
:1008F00098010E2C02C0220F331F0A94E2F7822FB8
:100900008095892385BB9C9B0DC025E030E083B397
:1009100090E0022E02C0959587950A94E2F780FD3B
:1009200014C002C024E030E0F701EE0FFF1FEE0F0D
:10093000FF1F81E090E08C0F9D1FE80FF91F2E0F25
:100940003F1FF901349780810DC02F5F3F4F283042
:100950003105E9F69FEFE91AF90A84E0E816F10497
:1009600019F68FEF60960FB6F894DEBF0FBECDBFBD
:10097000DF91CF911F910F91FF90EF90089543E089
:1009800061E082E40E94640387EE93E00197F1F74F
:1009900000C0000043E060E082E40E94640387EE50
:1009A00093E00197F1F700C000000895CF93C82F9E
:1009B00041E060E082E40E9464036C2F81E40E94C5
:1009C000D4030E94BF046C2F81E40E94FF030E94A5
:1009D000BF04CF91089560EF81E40E9426036EE08A
:1009E00082E40E94450342E060E082E40E946403E6
:1009F00083E30E94D60482E30E94D60488E20E9428
:100A0000D6048FE00E94D60481E00E94D60487E8D5
:100A100093E10197F1F700C000000895CF93C82F2C
:100A200041E061E082E40E9464036C2F81E40E9453
:100A3000D4030E94BF046C2F81E40E94FF030E9434
:100A4000BF04CF910895CF93DF93EC018881882371
:100A500031F021960E940E0589918111FBCFDF9123
:100A6000CF910895823068F4603158F4811105C047
:100A700080E8860F0E94D604089580EC860F0E94BD
:100A8000D60408950E944D040E94EB0461E080E0CA
:100A90000E9432050E945904C82F8F3FD9F30E944B
:100AA0000E058C2F0E947A028C01CD3359F461E03F
:100AB00081E00E943205C8010E94230561E080E0C8
:100AC0000E9432052FEF89EF90E021508040904046
:100AD000E1F700C00000DECF97FB072E16F400946C
:100AE00007D077FD09D00E94800507FC05D03EF4B1
:100AF000909581959F4F0895709561957F4F0895CA
:100B0000AA1BBB1B51E107C0AA1FBB1FA617B70733
:100B100010F0A61BB70B881F991F5A95A9F780954F
:0C0B20009095BC01CD010895F894FFCF22
:100B2C003738392F3435362A3132332D41303D2B7D
:00000001FF
