S01100004C43444472697665722E73726563D4
S11300000C942A000C9447000C9447000C9447006D
S11300100C9447000C9447000C9447000C94470040
S11300200C9447000C9447000C9447000C94470030
S11300300C9447000C9447000C9447000C94470020
S11300400C9447000C9447000C9447000C94470010
S11300500C94470011241FBECFE5D8E0DEBFCDBF0E
S113006010E0A0E6B0E0EAE1F7E002C005900D92EE
S1130070A037B107D9F720E0A0E7B0E001C01D9296
S1130080A337B207E1F70E9439030C948B030C9455
S11300900000909171009B3239F42091700020533C
S11300A0280F2093700015C09D3239F49091700090
S11300B0905D981B9093700008959A3251F460ED0E
S11300C0680F80917000689F602D11246093700008
S11300D008959F3261F42091700030E0682F70E041
S11300E060537109C9010E9463036093700008950D
S11300F0CF938D3319F48091700033C0982F9D7F76
S11301009D3221F096ED980F923028F4809371007F
S11301101092720024C0C82F80917200813071F453
S113012080917000880F982F990F990F890F9091E3
S113013071009053890F809370000CC080917100FE
S1130140811105C080ED8C0F8093700003C08C2F4B
S11301500E944900C093710081E0809372008091F5
S11301607000CF910895823499F018F4813431F0FD
S113017008958334B9F08434F9F00895613021F49A
S11301808AB3806F8ABB08958AB38F708ABB08953F
S1130190613021F487B3806F87BB089587B38F7074
S11301A087BB0895613021F484B3806F84BB0895C4
S11301B084B38F7084BB0895613021F481B3806F60
S11301C081BB089581B38F7081BB0895823499F007
S11301D018F4813431F008958334B9F08434F9F09B
S11301E00895613021F48AB38F608ABB08958AB37D
S11301F0807F8ABB0895613021F487B38F6087BB09
S1130200089587B3807F87BB0895613021F484B358
S11302108F6084BB089584B3807F84BB089561306C
S113022021F481B38F6081BB089581B3807F81BB4A
S11302300895823471F018F4813431F008958334D0
S113024069F0843481F008958AB3607F682B6ABBB7
S1130250089587B3607F682B67BB089584B3607F7C
S1130260682B64BB089581B3607F682B61BB0895DC
S1130270823471F018F4813431F00895833469F0D4
S1130280843481F008958AB36F70682B6ABB089533
S113029087B36F70682B67BB089584B36F70682B46
S11302A064BB089581B36F70682B61BB0895823479
S11302B019F118F4813439F008958334B1F1843498
S11302C009F44CC00895613059F42BB381E090E0F7
S11302D002C0880F991F4A95E2F7822B8BBB0895C1
S11302E02BB381E090E002C0880F991F4A95E2F792
S11302F0809582238BBB0895613059F428B381E043
S113030090E002C0880F991F4A95E2F7822B88BBC0
S1130310089528B381E090E002C0880F991F4A95A0
S1130320E2F78095822388BB0895613059F425B3A0
S113033081E090E002C0880F991F4A95E2F7822B72
S113034085BB089525B381E090E002C0880F991F12
S11303504A95E2F78095822385BB0895613059F46C
S113036022B381E090E002C0880F991F4A95E2F71A
S1130370822B82BB089522B381E090E002C0880FF3
S1130380991F4A95E2F78095822382BB08958234AF
S113039089F018F4813431F00895833499F0843469
S11303A0C9F008958BB38F708BBB8BB3607F682BC0
S11303B06BBB089588B38F7088BB88B3607F682B4C
S11303C068BB089585B38F7085BB85B3607F682B48
S11303D065BB089582B38F7082BB82B3607F682B44
S11303E062BB08958234A1F018F4813431F0089589
S11303F08334C9F0843411F108958BB38F708BBBAF
S11304008BB390E1699FB0011124682B6BBB0895F5
S113041088B38F7088BB88B390E1699FB0011124C1
S1130420682B68BB089585B38F7085BB85B390E155
S1130430699FB0011124682B65BB089582B38F7046
S113044082BB82B390E1699FB0011124682B62BB27
S11304500895823461F018F4813431F008958334BE
S113046049F0843451F008958FEF8BBB08958FEFDA
S113047088BB08958FEF85BB08958FEF82BB0895E5
S113048060E083E40E94B30061E083E40E94E6003C
S113049083E40E9429020895EF92FF920F931F9321
S11304A0CF93DF93CDB7DEB760970FB6F894DEBF76
S11304B00FBECDBF80E1E0E6F0E0DE0111960190D1
S11304C00D928A95E1F7E12CF12C01E010E083E430
S11304D00E94290295B398010E2C02C0220F331FEB
S11304E00A94E2F7822F8095892385BB9C9B0DC0DB
S11304F025E030E083B390E0022E02C09595879505
S11305000A94E2F780FD14C002C024E030E0F70151
S1130510EE0FFF1FEE0FFF1F81E090E08C0F9D1F79
S1130520E80FF91F2E0F3F1FF901349780810DC08A
S11305302F5F3F4F28303105E9F69FEFE91AF90A9A
S113054084E0E816F10419F68FEF60960FB6F8947C
S1130550DEBF0FBECDBFDF91CF911F910F91FF90F2
S1130560EF90089543E061E082E40E94570187EE32
S113057093E00197F1F700C0000043E060E082E4FB
S11305800E94570187EE93E00197F1F700C0000045
S11305900895CF93C82F41E060E082E40E945701A0
S11305A06C2F81E40E94C7010E94B2026C2F81E487
S11305B00E94F2010E94B202CF91089560EF81E49B
S11305C00E9419016EE082E40E94380142E060E07A
S11305D082E40E94570183E30E94C90282E30E94DD
S11305E0C90288E20E94C9028FE00E94C90281E028
S11305F00E94C90287E893E10197F1F700C0000067
S11306000895CF93C82F41E061E082E40E9457012E
S11306106C2F81E40E94C7010E94B2026C2F81E416
S11306200E94F2010E94B202CF910895CF93DF930A
S1130630EC018881882331F021960E94010389917D
S11306408111FBCFDF91CF910895823068F460313E
S113065058F4811105C080E8860F0E94C9020895EC
S113066080EC860F0E94C902089581E00E94C902AD
S113067008950E9440020E94DE0261E080E00E9430
S113068025030E944C02C82F8F3FD9F30E94010317
S11306908C2F0E947800D82FCD3359F40E94350353
S11306A061E081E00E94250380E38D0F90E00E94C9
S11306B016032FEF89EF90E0215080409040E1F73E
S11306C000C00000DECF97FB072E16F4009407D07D
S11306D077FD09D00E94770307FC05D03EF490957E
S11306E081959F4F0895709561957F4F0895AA1B3A
S11306F0BB1B51E107C0AA1FBB1FA617B70710F009
S1130700A61BB70B881F991F5A95A9F7809590953A
S10D0710BC01CD010895F894FFCF59
S113071A3738392F3435362A3132332D41303D2B8F
S9030000FC
