:100000000C942A000C943F000C943F000C943F0089
:100010000C943F000C943F000C943F000C943F0064
:100020000C943F000C943F000C943F000C943F0054
:100030000C943F000C943F000C943F000C943F0044
:100040000C943F000C943F000C943F000C943F0034
:100050000C943F0011241FBECFE5D8E0DEBFCDBF1A
:1000600010E0A0E6B0E0E8E6F4E002C005900D92F2
:10007000A037B107D9F70E941A020C9432020C94EF
:100080000000823499F018F4813431F008958334FB
:10009000B9F08434F9F00895613021F48AB3806FA7
:1000A0008ABB08958AB38F708ABB0895613021F4AA
:1000B00087B3806F87BB089587B38F7087BB089520
:1000C000613021F484B3806F84BB089584B38F7052
:1000D00084BB0895613021F481B3806F81BB0895A2
:1000E00081B38F7081BB0895823499F018F4813404
:1000F00031F008958334B9F08434F9F00895613013
:1001000021F48AB38F608ABB08958AB3807F8ABB4B
:100110000895613021F487B38F6087BB089587B35A
:10012000807F87BB0895613021F484B38F6084BBE6
:10013000089584B3807F84BB0895613021F481B336
:100140008F6081BB089581B3807F81BB0895823425
:1001500019F118F4813439F008958334B1F18434FD
:1001600009F44CC00895613059F42BB381E090E05C
:1001700002C0880F991F4A95E2F7822B8BBB089526
:100180002BB381E090E002C0880F991F4A95E2F7F7
:10019000809582238BBB0895613059F428B381E0A8
:1001A00090E002C0880F991F4A95E2F7822B88BB26
:1001B000089528B381E090E002C0880F991F4A9506
:1001C000E2F78095822388BB0895613059F425B306
:1001D00081E090E002C0880F991F4A95E2F7822BD8
:1001E00085BB089525B381E090E002C0880F991F78
:1001F0004A95E2F78095822385BB0895613059F4D2
:1002000022B381E090E002C0880F991F4A95E2F77F
:10021000822B82BB089522B381E090E002C0880F58
:10022000991F4A95E2F78095822382BB0895823414
:1002300061F018F4813431F00895833449F0843446
:1002400051F008958FEF8BBB08958FEF88BB089511
:100250008FEF85BB08958FEF82BB089560E083E444
:100260000E94410061E083E40E94740083E40E94E4
:1002700017010895EF92FF920F931F93CF93DF938F
:10028000CDB7DEB760970FB6F894DEBF0FBECDBF17
:1002900080E1E0E6F0E0DE01119601900D928A9592
:1002A000E1F7E12CF12C01E010E083E40E9417015A
:1002B00095B398010E2C02C0220F331F0A94E2F767
:1002C000822F8095892385BB9C9B0DC025E030E063
:1002D00083B390E0022E02C0959587950A94E2F7C9
:1002E00080FD14C002C024E030E0F701EE0FFF1FD4
:1002F000EE0FFF1F81E090E08C0F9D1FE80FF91FAC
:100300002E0F3F1FF901349780810DC02F5F3F4FA3
:1003100028303105E9F69FEFE91AF90A84E0E8167A
:10032000F10419F68FEF60960FB6F894DEBF0FBE9A
:10033000CDBFDF91CF911F910F91FF90EF90089566
:1003400043E061E082E40E94A70087EE93E001971A
:10035000F1F700C0000043E060E082E40E94A700E3
:1003600087EE93E00197F1F700C000000895CF9366
:10037000C82FC1988BB38F708BBB8BB39C2F907F92
:10038000892B8BBB0E94A0018BB38F708BBB2BB3CF
:1003900030E1C39FC0011124822B8BBB0E94A001BE
:1003A000CF9108958AB3806F8ABB87B38E6087BB75
:1003B000C29883E30E94B70182E30E94B70188E2FA
:1003C0000E94B7018FE00E94B70181E00E94B7014F
:1003D00087E893E10197F1F700C000000895CF93FB
:1003E000C82FC19A8BB38F708BBB8BB39C2F907F20
:1003F000892B8BBB0E94A0018BB38F708BBB2BB35F
:1004000030E1C39FC0011124822B8BBB0E94A0014D
:10041000CF910895823068F4603158F4811105C09D
:1004200080E8860F0E94B701089580EC860F0E9435
:10043000B70108950E942E010E94D20161E080E080
:100440000E940A020E943A018F3FE1F30E94EF01ED
:100450002FEF89EF90E0215080409040E1F700C0FD
:080460000000F0CFF894FFCF7B
:100468003738392F3435362A3132332D41303D2B48
:00000001FF
