S01100004C43444472697665722E73726563D4
S11300000C942A000C943F000C943F000C943F0085
S11300100C943F000C943F000C943F000C943F0060
S11300200C943F000C943F000C943F000C943F0050
S11300300C943F000C943F000C943F000C943F0040
S11300400C943F000C943F000C943F000C943F0030
S11300500C943F0011241FBECFE5D8E0DEBFCDBF16
S113006010E0A0E6B0E0ECE9F5E002C005900D92E6
S1130070A037B107D9F70E94B4020C94CC020C94B7
S11300800000823499F018F4813431F008958334F7
S1130090B9F08434F9F00895613021F48AB3806FA3
S11300A08ABB08958AB38F708ABB0895613021F4A6
S11300B087B3806F87BB089587B38F7087BB08951C
S11300C0613021F484B3806F84BB089584B38F704E
S11300D084BB0895613021F481B3806F81BB08959E
S11300E081B38F7081BB0895823499F018F4813400
S11300F031F008958334B9F08434F9F0089561300F
S113010021F48AB38F608ABB08958AB3807F8ABB47
S11301100895613021F487B38F6087BB089587B356
S1130120807F87BB0895613021F484B38F6084BBE2
S1130130089584B3807F84BB0895613021F481B332
S11301408F6081BB089581B3807F81BB0895823421
S113015071F018F4813431F00895833469F08434F3
S113016081F008958AB3607F682B6ABB089587B3D2
S1130170607F682B67BB089584B3607F682B64BB82
S1130180089581B3607F682B61BB0895823471F058
S113019018F4813431F00895833469F0843481F0A3
S11301A008958AB36F70682B6ABB089587B36F7024
S11301B0682B67BB089584B36F70682B64BB089584
S11301C081B36F70682B61BB0895823419F118F400
S11301D0813439F008958334B1F1843409F44CC086
S11301E00895613059F42BB381E090E002C0880F88
S11301F0991F4A95E2F7822B8BBB08952BB381E0BC
S113020090E002C0880F991F4A95E2F780958223F7
S11302108BBB0895613059F428B381E090E002C0AB
S1130220880F991F4A95E2F7822B88BB089528B35B
S113023081E090E002C0880F991F4A95E2F780950B
S1130240822388BB0895613059F425B381E090E09E
S113025002C0880F991F4A95E2F7822B85BB089547
S113026025B381E090E002C0880F991F4A95E2F718
S11302708095822385BB0895613059F422B381E0CF
S113028090E002C0880F991F4A95E2F7822B82BB47
S1130290089522B381E090E002C0880F991F4A9527
S11302A0E2F78095822382BB0895823489F018F4A2
S11302B0813431F00895833499F08434C9F0089579
S11302C08BB38F708BBB8BB3607F682B6BBB089534
S11302D088B38F7088BB88B3607F682B68BB089530
S11302E085B38F7085BB85B3607F682B65BB08952C
S11302F082B38F7082BB82B3607F682B62BB089528
S11303008234A1F018F4813431F008958334C9F0B3
S1130310843411F108958BB38F708BBB8BB390E150
S1130320699FB0011124682B6BBB089588B38F704B
S113033088BB88B390E1699FB0011124682B68BB26
S1130340089585B38F7085BB85B390E1699FB00133
S11303501124682B65BB089582B38F7082BB82B36E
S113036090E1699FB0011124682B62BB0895823427
S113037061F018F4813431F00895833449F0843401
S113038051F008958FEF8BBB08958FEF88BB0895CC
S11303908FEF85BB08958FEF82BB089560E083E4FF
S11303A00E94410061E083E40E94740083E40E949F
S11303B0B7010895EF92FF920F931F93CF93DF93AA
S11303C0CDB7DEB760970FB6F894DEBF0FBECDBFD2
S11303D080E1E0E6F0E0DE01119601900D928A954D
S11303E0E1F7E12CF12C01E010E083E40E94B70175
S11303F095B398010E2C02C0220F331F0A94E2F722
S1130400822F8095892385BB9C9B0DC025E030E01D
S113041083B390E0022E02C0959587950A94E2F783
S113042080FD14C002C024E030E0F701EE0FFF1F8E
S1130430EE0FFF1F81E090E08C0F9D1FE80FF91F66
S11304402E0F3F1FF901349780810DC02F5F3F4F5E
S113045028303105E9F69FEFE91AF90A84E0E81635
S1130460F10419F68FEF60960FB6F894DEBF0FBE55
S1130470CDBFDF91CF911F910F91FF90EF90089521
S113048043E061E082E40E94E50087EE93E0019797
S1130490F1F700C0000043E060E082E40E94E50060
S11304A087EE93E00197F1F700C000000895CF9321
S11304B0C82F41E060E082E40E94E5006C2F81E4F3
S11304C00E9455010E9440026C2F81E40E94800129
S11304D00E944002CF91089560EF81E40E94A7003A
S11304E06EE082E40E94C60042E060E082E40E9482
S11304F0E50083E30E94570282E30E94570288E2E8
S11305000E9457028FE00E94570281E00E94570226
S113051087E893E10197F1F700C000000895CF93B5
S1130520C82F41E061E082E40E94E5006C2F81E481
S11305300E9455010E9440026C2F81E40E948001B8
S11305400E944002CF910895823068F4603158F4DB
S1130550811105C080E8860F0E945702089580EC3F
S1130560860F0E94570208950E94CE010E946C02D9
S113057061E080E00E94A4020E94DA018F3FE1F36F
S11305800E948F022FEF89EF90E02150804090402D
S10F0590E1F700C00000F0CFF894FFCFAA
S113059C3738392F3435362A3132332D41303D2B0F
S9030000FC
