:100000000C942A000C9447000C9447000C94470071
:100010000C9447000C9447000C9447000C94470044
:100020000C9447000C9447000C9447000C94470034
:100030000C9447000C9447000C9447000C94470024
:100040000C9447000C9447000C9447000C94470014
:100050000C94470011241FBECFE5D8E0DEBFCDBF12
:1000600010E0A0E6B0E0E4EDFDE002C005900D92E6
:10007000A237B107D9F720E0A2E7B0E001C01D9296
:10008000AB3CB207E1F70E9491060C94E8060C9491
:1000900000002F923F924F925F926F927F928F92C9
:1000A0009F92AF92BF92CF92DF92EF92FF920F9307
:1000B0001F93CF93DF93CDB7DEB72C970FB6F8948D
:1000C000DEBF0FBECDBF9E838D8358874F831C83B9
:1000D0000B83409074005090750020907200309017
:1000E0007300F201421453040CF4F1016E177F0700
:1000F0000CF49AC02E173F070CF496C05B014FEF2B
:10010000A41AB40A8D819E81A80EB91ED901119737
:100110004F815885A40FB51F0B811C810E0D1F1D2B
:10012000D12C5A8649865D2CBC87AB8710C051E024
:10013000551205C0D6018C918F528C93512C4B8552
:100140005C85415051095C874B8701501109390189
:10015000CB84DC84D60111962C914B01D5013E91C4
:100160005D01832F90E0820F911D805691098A30A6
:1001700091054CF06AE070E00E94C006D8018C93B3
:100180005524539404C03056230FD8012C93C30137
:1001900001979C01D4011197BD01FA82E982A70160
:1001A000415051097A01E817F90751F0EA17FB07A6
:1001B00039F0AE17BF0724F08E179F070CF0B7CFAA
:1001C000D52C49845A84E1E0DE122EC0461657062B
:1001D000A4F4EB81FC81E40FF51F4D815E81A40F37
:1001E000B51F8C918F528083E980FA8052E0E51A26
:1001F000F108B4016250710917C022163306C4F425
:10020000EB81FC81E40FF51FAF81B885A80FB91F02
:100210008C918F528083E980FA8082E0E81AF1089D
:1002200093012250310927C0461657066CF023C0AF
:10023000EB81FC81E40FF51F81E08083E980FA8087
:1002400092E0E91AF10831C0DB0111964D815E811F
:10025000A40FB51FF70131964B815C81E40FF51FA8
:100260008E918053829351E0E51AF1086150710933
:1002700046165706ACF322163306BCF4D901119684
:100280004F815885A40FB51FF70131964B815C81D2
:10029000E40FF51F8E918053829351E0E51AF10827
:1002A0002150310922163306ACF3C7012C960FB644
:1002B000F894DEBF0FBECDBFDF91CF911F910F919C
:1002C000FF90EF90DF90CF90BF90AF909F908F9076
:1002D0007F906F905F904F903F902F9008952F9256
:1002E0003F924F925F926F927F928F929F92AF92C6
:1002F000BF92CF92DF92EF92FF920F931F93CF9313
:10030000DF93CDB7DEB764970FB6F894DEBF0FBEAC
:10031000CDBF80919E0090919F00009729F001979A
:1003200090939F0080939E008091B4009091B500BF
:10033000009729F001979093B5008093B4008091C5
:10034000CA008B32C1F420919E0030919F006091D1
:10035000B4007091B5000F2EF3E1EF2EF12CF02DCB
:100360008E010F5F1F4F40EA50E086EB90E00E9445
:1003700049009C01A4C18D3209F070C000919E001B
:1003800010919F00A090B400B090B500A016B106E7
:100390000CF4CEC1BB200CF490C111230CF4BAC1F3
:1003A000FE013196A801C50162E170E00F2EFAE06E
:1003B000DF2EF02D9C012A543F4FD9012C9140563D
:1003C0005F4FDA013C91E22EF12CB0E3EB1AF10819
:1003D000432F50E040535109E416F50684F4AC0174
:1003E0004A545F4FCA0101972153DC012C939D2D84
:1003F000931BDA018C91890F838B9B0103C0231B14
:10040000238B9B01A80141505109C50101974AF472
:100410009093B5008093B40050939F0040939E004A
:100420001FC06150710931975C018A01552314F690
:100430009093B5008093B40050939F0040939E002A
:100440006BC18E91805382932150310941505109E3
:10045000C2F75093B5004093B40002C023E130E0EE
:100460008091CA008A3209F02AC14090B4005090AD
:10047000B50020909E0030909F0080916000E82F92
:10048000F0E0EA58FF4F90E3908381508093600042
:1004900033200CF0F0C013C1013071F5D7014C913D
:1004A00050E040535109DC01AA54BF4F6C9170E0F9
:1004B00060537109469FC001479F900D569F900D54
:1004C00011248B3091056CF04A2D50E0BA0166572B
:1004D0007F4F4B01B3010E94C006805DD4018C9315
:1004E00009C0AA2DB0E0A657BF4F469F402D11244A
:1004F000405D4C93AA9430C0D7014C9150E04053DA
:100500005109DC01AA54BF4F6C9170E0605371092E
:10051000469FC001479F900D569F900D11248B3030
:1005200091057CF0412F50E0BA016A587F4F4B0192
:10053000B3010E94C006805DD4018C931150DC2C65
:100540000BC0A12FB0E0AA58BF4F469F402D1124E9
:10055000405D4C931150DC2CCF010197FC010AF057
:100560009BCF9093B5008093B400A092610010934C
:100570006000B1E0DB124CC08091610090E090938C
:10058000750080937400A09060008A2D90E0909395
:100590007300809372000F2EF3E1EF2EF12CF02DFB
:1005A0008E010F5F1F4F23E130E046E750E063E12B
:1005B00070E08AE890E00E9449009C01A394A09218
:1005C00060004A2D50E0443151054CF4EAE8F0E077
:1005D00083E190E0B292019784179507DCF723310D
:1005E00031059CF4FE017596AEE9B0E0A9014F5FBC
:1005F0005F4F61E070E06C0F7D1F460F571F8291C7
:10060000805D8E93E417F507D1F72093610022C037
:1006100021143104F9F480916100482F50E04331F6
:100620005105C4F4EEE9F0E0B9012F5F3F4FA1E0BE
:10063000B0E0AC0FBD1FA20FB31F9A0145575F4F2B
:10064000829180538E93E417F507D1F72351310936
:10065000260F371F80919E0090919F0001979093E5
:100660009F0080939E005092B5004092B40000E03D
:10067000992374F424C001E0D12C0F2EFAE06F2EE0
:10068000712CF02DCC24C3940F2EF0E3BF2EF02D4F
:10069000E091B400F091B500FF230CF46ACF4091D3
:1006A0009E0050919F00A090610010916000CF01CA
:1006B000DA01A056BF4F7D01EFCE23E130E010926A
:1006C000B5001092B400A9012F5F3F4F24313105CE
:1006D000CCF4E1E0F0E0EC0FFD1FE20FF31FA6EB1E
:1006E000B0E09E012B5E3F4F8191805D8D932E1770
:1006F0003F07D1F783E190E0841B950B9093B50001
:100700008093B400E091B400F091B500EA54FF4F3B
:10071000108213C023E130E04091B4005091B50045
:10072000DA01A954BF4FFE01E20FF31F329689CEC2
:100730001092B5001092B400E5CF64960FB6F8940D
:10074000DEBF0FBECDBFDF91CF911F910F91FF9004
:10075000EF90DF90CF90BF90AF909F908F907F9061
:100760006F905F904F903F902F900895CF93C82F38
:100770008D3329F40E946F0186EB90E034C08D7FA9
:100780008D3221F086ED8C0F823050F48091CA00BA
:1007900081110E946F01C093CA0080E090E023C0E5
:1007A0008091CA00811110C08091B4009091B50071
:1007B000FC01EA54FF4FC08301969093B5008093EB
:1007C000B40080E090E00FC080919E0090919F0067
:1007D000FC01E056FF4FC083019690939F008093E9
:1007E0009E0080E090E0CF9108951092B5001092A5
:1007F000B40010929F0010929E0083E180936100EC
:100800008093600010927500109274001092730033
:10081000109272000895823499F018F4813431F006
:1008200008958334B9F08434F9F00895613021F4E7
:100830008AB3806F8ABB08958AB38F708ABB08958C
:10084000613021F487B3806F87BB089587B38F70C1
:1008500087BB0895613021F484B3806F84BB089511
:1008600084B38F7084BB0895613021F481B3806FAD
:1008700081BB089581B38F7081BB0895823499F054
:1008800018F4813431F008958334B9F08434F9F0E8
:100890000895613021F48AB38F608ABB08958AB3CA
:1008A000807F8ABB0895613021F487B38F6087BB56
:1008B000089587B3807F87BB0895613021F484B3A6
:1008C0008F6084BB089584B3807F84BB08956130BA
:1008D00021F481B38F6081BB089581B3807F81BB98
:1008E0000895823471F018F4813431F0089583341E
:1008F00069F0843481F008958AB3607F682B6ABB05
:10090000089587B3607F682B67BB089584B3607FC9
:10091000682B64BB089581B3607F682B61BB089529
:10092000823471F018F4813431F00895833469F021
:10093000843481F008958AB36F70682B6ABB089580
:1009400087B36F70682B67BB089584B36F70682B93
:1009500064BB089581B36F70682B61BB08958234C6
:1009600019F118F4813439F008958334B1F18434E5
:1009700009F44CC00895613059F42BB381E090E044
:1009800002C0880F991F4A95E2F7822B8BBB08950E
:100990002BB381E090E002C0880F991F4A95E2F7DF
:1009A000809582238BBB0895613059F428B381E090
:1009B00090E002C0880F991F4A95E2F7822B88BB0E
:1009C000089528B381E090E002C0880F991F4A95EE
:1009D000E2F78095822388BB0895613059F425B3EE
:1009E00081E090E002C0880F991F4A95E2F7822BC0
:1009F00085BB089525B381E090E002C0880F991F60
:100A00004A95E2F78095822385BB0895613059F4B9
:100A100022B381E090E002C0880F991F4A95E2F767
:100A2000822B82BB089522B381E090E002C0880F40
:100A3000991F4A95E2F78095822382BB08958234FC
:100A400089F018F4813431F00895833499F08434B6
:100A5000C9F008958BB38F708BBB8BB3607F682B0D
:100A60006BBB089588B38F7088BB88B3607F682B99
:100A700068BB089585B38F7085BB85B3607F682B95
:100A800065BB089582B38F7082BB82B3607F682B91
:100A900062BB08958234A1F018F4813431F00895D6
:100AA0008334C9F0843411F108958BB38F708BBBFC
:100AB0008BB390E1699FB0011124682B6BBB089543
:100AC00088B38F7088BB88B390E1699FB00111240F
:100AD000682B68BB089585B38F7085BB85B390E1A3
:100AE000699FB0011124682B65BB089582B38F7094
:100AF00082BB82B390E1699FB0011124682B62BB75
:100B00000895823461F018F4813431F0089583340B
:100B100049F0843451F008958FEF8BBB08958FEF27
:100B200088BB08958FEF85BB08958FEF82BB089532
:100B300060E083E40E940B0461E083E40E943E04D1
:100B400083E40E9481050895EF92FF920F931F9313
:100B5000CF93DF93CDB7DEB760970FB6F894DEBFC3
:100B60000FBECDBF80E1E2E6F0E0DE01119601901C
:100B70000D928A95E1F7E12CF12C01E010E083E47D
:100B80000E94810595B398010E2C02C0220F331FDD
:100B90000A94E2F7822F8095892385BB9C9B0DC028
:100BA00025E030E083B390E0022E02C09595879552
:100BB0000A94E2F780FD14C002C024E030E0F7019F
:100BC000EE0FFF1FEE0FFF1F81E090E08C0F9D1FC7
:100BD000E80FF91F2E0F3F1FF901349780810DC0D8
:100BE0002F5F3F4F28303105E9F69FEFE91AF90AE8
:100BF00084E0E816F10419F68FEF60960FB6F894CA
:100C0000DEBF0FBECDBFDF91CF911F910F91FF903F
:100C1000EF90089543E061E082E40E94AF0487EE24
:100C200093E00197F1F700C0000043E060E082E448
:100C30000E94AF0487EE93E00197F1F700C0000037
:100C40000895CF93C82F41E060E082E40E94AF0492
:100C50006C2F81E40E941F050E940A066C2F81E41C
:100C60000E944A050E940A06CF91089560EF81E430
:100C70000E9471046EE082E40E94900442E060E011
:100C800082E40E94AF0483E30E94210682E30E9473
:100C9000210688E20E9421068FE00E94210681E061
:100CA0000E94210687E893E10197F1F700C0000058
:100CB0000895CF93C82F41E061E082E40E94AF0421
:100CC0006C2F81E40E941F050E940A066C2F81E4AC
:100CD0000E944A050E940A06CF910895CF93DF93A0
:100CE000EC018881882331F021960E945906899170
:100CF0008111FBCFDF91CF910895823068F460318C
:100D000058F4811105C080E8860F0E9421060895DD
:100D100080EC860F0E942106089581E00E94210642
:100D200008950E9498050E94360661E080E00E94C6
:100D30007D060E94A405C82F8F3FD9F38D3351F44F
:100D400061E081E00E947D068DE30E94B6030E946F
:100D50006E060CC0813429F40E948D060E94F503B2
:100D600005C00E94B6038C2F0E9459062FEF89EF11
:100D700090E0215080409040E1F700C00000D9CFC2
:100D800097FB072E16F4009407D077FD09D00E9438
:100D9000D40607FC05D03EF4909581959F4F0895A9
:100DA000709561957F4F0895AA1BBB1B51E107C049
:100DB000AA1FBB1FA617B70710F0A61BB70B881FEB
:100DC000991F5A95A9F780959095BC01CD0108957A
:040DD000F894FFCFC5
:100DD40013133738392F3435362A3132332D413015
:020DE4003D2BA5
:00000001FF
