S01100004C43444472697665722E73726563D4
S11300000C942A000C9447000C9447000C9447006D
S11300100C9447000C9447000C9447000C94470040
S11300200C9447000C9447000C9447000C94470030
S11300300C9447000C9447000C9447000C94470020
S11300400C9447000C9447000C9447000C94470010
S11300500C94470011241FBECFE5D8E0DEBFCDBF0E
S113006010E0A0E6B0E0E8E1FDE002C005900D92EA
S1130070A237B107D9F720E0A2E7B0E001C01D9292
S1130080AB3CB207E1F70E943A060C948A060C9442
S113009000002F923F924F925F926F927F928F92C5
S11300A09F92AF92BF92CF92DF92EF92FF920F9303
S11300B01F93CF93DF93CDB7DEB72A970FB6F8948B
S11300C0DEBF0FBECDBF9C838B835E834D831A83BB
S11300D00983C7014090740050907500209072000D
S11300E030907300F201241435040CF4F1016E17FE
S11300F07F070CF495C02E173F070CF491C05B01E9
S11301004FEFA41AB40AAB81BC81AA0EBB1EA9018D
S113011041505109AD81BE814A0F5B1F7C01B1E0A2
S1130120EB1AF10809811A81080F191FD12C58867E
S11301304F825D2C5A87498713C041E0541205C091
S1130140D6018C918F5F8C93512C49855A854150EF
S113015051095A87498751E0E51AF10801501109FC
S11301603901C984DA84D60111962C914B01D50149
S11301703E915D01832F90E0C097820F911D8A30DC
S1130180910554F06AE070E00E946206D8018C93F5
S1130190C7015524539405C03053230FD8012C9321
S11301A0C701A301415051099A01D4011197BD011E
S11301B0E417F50751F0EA17FB0739F0AE17BF074C
S11301C024F04E175F070CF0B8CFD52C4F8058841D
S11301D0E1E0DE1225C04616570684F4E981FA816F
S11301E0E80FF91F4B815C81A40FB51F4C914F524E
S11301F040830197B4016250710912C0221633067C
S11302009CF4E981FA81E80FF91FAD81BE81A40F46
S1130210B51F2C912F5F2083019793012250310940
S1130220641575054CF41DC0E981FA81E80FF91FC6
S113023041E040830197F4CFDB0111964B815C814F
S1130240A40FB51FFC01319649815A81E40FF51FB3
S11302504E9140534293019761507109641575059D
S1130260BCF722153305A4F0D90111964D815E81A6
S1130270A40FB51FFC01319649815A81E40FF51F83
S11302804E91429301972150310922153305C4F749
S11302902A960FB6F894DEBF0FBECDBFDF91CF9183
S11302A01F910F91FF90EF90DF90CF90BF90AF9090
S11302B09F908F907F906F905F904F903F902F9082
S11302C008955F926F927F928F929F92AF92BF92A6
S11302D0CF92DF92EF92FF920F931F93CF93DF930E
S11302E0CDB7DEB764970FB6F894DEBF0FBECDBFAF
S11302F080919E0090919F00009729F00197909320
S11303009F0080939E008091B4009091B500009767
S113031029F001979093B5008093B4008091CA00AE
S11303208B32C1F420919E0030919F006091B40003
S11303307091B5000F2EF3E1EF2EF12CF02D8E010C
S11303400F5F1F4F40EA50E086EB90E00E944900A7
S11303507C016AC18D3209F0AAC100919E001091FE
S11303609F00A090B400B090B500A016B1060CF4A4
S1130370A4C1BB200CF453C111230CF482C1FE01AF
S113038031969801C50162E170E00F2EF0EDCF2E99
S1130390F02D0F2EFAEDDF2EF02DAC014A545F4FF5
S11303A0DA014C9120563F4FD9015C91242F30E063
S11303B020533109E52EF12C2E153F0584F49C01C0
S11303C02A543F4FC90101974153DC014C939D2DA1
S11303D0951BD9018C91890F838B7B0105C08C2DD2
S11303E0851B480F438B7B01980121503109C501BE
S11303F001974AF49093B5008093B40030939F0022
S113040020939E001DC06150710931975C018901E0
S113041033231CF69093B5008093B40030939F006F
S113042020939E0033C18E918053829351E0E51A4C
S1130430F10821503109BAF73093B5002093B40084
S11304408091CA008A3209F0EFC005C00F2EF3E193
S1130450EF2EF12CF02DA090B400B090B500809157
S11304609E0090919F0099230CF0BBC0DDC0A1E0D9
S11304706A1226C05081DC01AA54BF4F8C9190E0CF
S1130480BC0160537109569FC001579F900D112400
S11304908B3091055CF0052D10E006571F4FB60117
S11304A00E946206D8018C935A9431C0A52DB0E005
S11304B0A657BF4F569F802D11248C935A9427C062
S11304C05081DC01AA54BF4F8C9190E0BC01605371
S11304D07109569FC001579F900D11248B309105CF
S11304E064F0042F10E00A581F4FB6010E94620600
S11304F0D8018C934150982C0AC0A42FB0E0AA587C
S1130500BF4F569F802D11248C934150982CC901C4
S113051001979C010AF0ABCF9093B5008093B4008F
S11305204093600050926100B1E09B1639F06091F5
S11305306100862F90E04397F4F038C08091610009
S113054090E090937500809374008091600090E037
S113055090937300809372008E010F5F1F4F23E10D
S113056030E046E750E063E170E08AE890E00E9402
S113057049007C011BC0EEE9F0E0A7018FEFE81A07
S1130580F80AA1E0B0E0AC0FBD1FAE0DBF1D70E0D6
S11305909B0125573F4F82918E93E217F307D9F7BA
S11305A07B01A3E1EA1AF108E40EF51E80916000D4
S11305B0E82FF0E0EA58FF4F1082815080936000EA
S11305C080919E0090919F00019790939F0080934B
S11305D09E00B092B500A092B400672C992364F4F5
S11305E023C066246394912C0F2EFAE0CF2ED12CD5
S11305F0F02D88248394712C2091B4003091B5009F
S113060033230CF491CFE0919E00F0919F00509021
S1130610610040916000C901E056FF4F28CF0F2EC2
S1130620F3E1EF2EF12CF02D1092B5001092B400EE
S1130630A701BFEFEB1AFB0A84E1E816F104CCF43E
S1130640E1E0F0E0EC0FFD1FEE0DFF1DA6EBB0E0C6
S11306509E012B5E3F4F8191805D8D932E173F0746
S1130660D1F783E190E0841B950B9093B5008093C0
S1130670B400E091B400F091B500EA54FF4F108249
S113068021C00F2EF3E1EF2EF12CF02D2091B400B8
S11306903091B500D901A954BF4FFE01EE0DFF1DE5
S11306A03296C1CE1092B5001092B400E2CF809180
S11306B0CA008A3209F4CACEF5CF1092B50010925E
S11306C0B400D7CF64960FB6F894DEBF0FBECDBF8B
S11306D0DF91CF911F910F91FF90EF90DF90CF901A
S11306E0BF90AF909F908F907F906F905F90089590
S11306F0CF93C82F8D3329F40E94610186EB90E0DB
S113070035C08D7F8D3221F086ED8C0F823050F410
S11307108091CA0081110E946101C093CA0080E0E7
S113072090E024C08091CA00811110C08091B4006F
S11307309091B500FC01EA54FF4FC0830196909359
S1130740B5008093B40080E090E010C080919E00DA
S113075090919F00FC01E056FF4FC053C083019667
S113076090939F0080939E0080E090E0CF91089545
S1130770823499F018F4813431F008958334B9F057
S11307808434F9F00895613021F48AB3806F8ABB10
S113079008958AB38F708ABB0895613021F487B3BA
S11307A0806F87BB089587B38F7087BB08956130CE
S11307B021F484B3806F84BB089584B38F7084BBA9
S11307C00895613021F481B3806F81BB089581B3B2
S11307D08F7081BB0895823499F018F4813431F01C
S11307E008958334B9F08434F9F00895613021F424
S11307F08AB38F608ABB08958AB3807F8ABB0895C9
S1130800613021F487B38F6087BB089587B3807FFD
S113081087BB0895613021F484B38F6084BB08954D
S113082084B3807F84BB0895613021F481B38F60E9
S113083081BB089581B3807F81BB0895823471F0B8
S113084018F4813431F00895833469F0843481F0EC
S113085008958AB3607F682B6ABB089587B3607F6D
S1130860682B67BB089584B3607F682B64BB0895CD
S113087081B3607F682B61BB0895823471F018F4F2
S1130880813431F00895833469F0843481F008951B
S11308908AB36F70682B6ABB089587B36F70682B37
S11308A067BB089584B36F70682B64BB089581B3EC
S11308B06F70682B61BB0895823419F118F4813488
S11308C039F008958334B1F1843409F44CC00895A7
S11308D0613059F42BB381E090E002C0880F991F76
S11308E04A95E2F7822B8BBB08952BB381E090E00D
S11308F002C0880F991F4A95E2F7809582238BBB2B
S11309000895613059F428B381E090E002C0880F63
S1130910991F4A95E2F7822B88BB089528B381E09A
S113092090E002C0880F991F4A95E2F780958223D0
S113093088BB0895613059F425B381E090E002C08A
S1130940880F991F4A95E2F7822B85BB089525B33A
S113095081E090E002C0880F991F4A95E2F78095E4
S1130960822385BB0895613059F422B381E090E07D
S113097002C0880F991F4A95E2F7822B82BB089523
S113098022B381E090E002C0880F991F4A95E2F7F4
S11309908095822382BB0895823489F018F48134CF
S11309A031F00895833499F08434C9F008958BB3F9
S11309B08F708BBB8BB3607F682B6BBB089588B340
S11309C08F7088BB88B3607F682B68BB089585B33C
S11309D08F7085BB85B3607F682B65BB089582B338
S11309E08F7082BB82B3607F682B62BB08958234B0
S11309F0A1F018F4813431F008958334C9F08434BB
S1130A0011F108958BB38F708BBB8BB390E1699F09
S1130A10B0011124682B6BBB089588B38F7088BB19
S1130A2088B390E1699FB0011124682B68BB0895D5
S1130A3085B38F7085BB85B390E1699FB0011124A4
S1130A40682B65BB089582B38F7082BB82B390E13B
S1130A50699FB0011124682B62BB0895823461F050
S1130A6018F4813431F00895833449F0843451F01A
S1130A7008958FEF8BBB08958FEF88BB08958FEF98
S1130A8085BB08958FEF82BB089560E083E40E94E4
S1130A90B80361E083E40E94EB0383E40E942E0523
S1130AA00895EF92FF920F931F93CF93DF93CDB7E7
S1130AB0DEB760970FB6F894DEBF0FBECDBF80E1FE
S1130AC0E2E6F0E0DE01119601900D928A95E1F7DD
S1130AD0E12CF12C01E010E083E40E942E0595B393
S1130AE098010E2C02C0220F331F0A94E2F7822FC2
S1130AF08095892385BB9C9B0DC025E030E083B3A2
S1130B0090E0022E02C0959587950A94E2F780FD45
S1130B1014C002C024E030E0F701EE0FFF1FEE0F17
S1130B20FF1F81E090E08C0F9D1FE80FF91F2E0F2F
S1130B303F1FF901349780810DC02F5F3F4F28304C
S1130B403105E9F69FEFE91AF90A84E0E816F104A1
S1130B5019F68FEF60960FB6F894DEBF0FBECDBFC7
S1130B60DF91CF911F910F91FF90EF90089543E093
S1130B7061E082E40E945C0487EE93E00197F1F760
S1130B8000C0000043E060E082E40E945C0487EE61
S1130B9093E00197F1F700C000000895CF93C82FA8
S1130BA041E060E082E40E945C046C2F81E40E94D6
S1130BB0CC040E94B7056C2F81E40E94F7040E94C4
S1130BC0B705CF91089560EF81E40E941E046EE0A2
S1130BD082E40E943D0442E060E082E40E945C04FE
S1130BE083E30E94CE0582E30E94CE0588E20E9440
S1130BF0CE058FE00E94CE0581E00E94CE0587E8F5
S1130C0093E10197F1F700C000000895CF93C82F36
S1130C1041E061E082E40E945C046C2F81E40E9464
S1130C20CC040E94B7056C2F81E40E94F7040E9453
S1130C30B705CF910895CF93DF93EC018881882382
S1130C4031F021960E94060689918111FBCFDF9134
S1130C50CF910895823068F4603158F4811105C051
S1130C6080E8860F0E94CE05089580EC860F0E94CE
S1130C70CE0508950E9445050E94E30561E080E0E9
S1130C800E942A060E945105C82F8F3FD9F38D3345
S1130C9051F461E081E00E942A068DE30E9478030A
S1130CA00E941B0605C00E9478038C2F0E94060632
S1130CB02FEF89EF90E0215080409040E1F700C091
S1130CC00000E0CF97FB072E16F4009407D077FDC1
S1130CD009D00E94760607FC05D03EF490958195D4
S1130CE09F4F0895709561957F4F0895AA1BBB1B74
S1130CF051E107C0AA1FBB1FA617B70710F0A61B18
S1130D00B70B881F991F5A95A9F780959095BC0138
S10B0D10CD010895F894FFCF12
S1130D1812133738392F3435362A3132332D4130CE
S1050D283D2B5D
S9030000FC
